{
  "contractName": "TweetFactory",
  "abi": [
    {
      "inputs": [],
      "stateMutability": "nonpayable",
      "type": "constructor"
    },
    {
      "anonymous": false,
      "inputs": [
        {
          "indexed": false,
          "internalType": "string",
          "name": "author",
          "type": "string"
        },
        {
          "indexed": false,
          "internalType": "string",
          "name": "date",
          "type": "string"
        }
      ],
      "name": "DeleteTweet",
      "type": "event"
    },
    {
      "anonymous": false,
      "inputs": [
        {
          "indexed": false,
          "internalType": "uint256",
          "name": "tweetId",
          "type": "uint256"
        },
        {
          "indexed": false,
          "internalType": "string",
          "name": "text",
          "type": "string"
        },
        {
          "indexed": false,
          "internalType": "string",
          "name": "author",
          "type": "string"
        },
        {
          "indexed": false,
          "internalType": "string",
          "name": "date",
          "type": "string"
        }
      ],
      "name": "NewTweet",
      "type": "event"
    },
    {
      "anonymous": false,
      "inputs": [
        {
          "indexed": false,
          "internalType": "string",
          "name": "newText",
          "type": "string"
        },
        {
          "indexed": false,
          "internalType": "string",
          "name": "author",
          "type": "string"
        },
        {
          "indexed": false,
          "internalType": "string",
          "name": "date",
          "type": "string"
        }
      ],
      "name": "UpdateTweet",
      "type": "event"
    },
    {
      "inputs": [],
      "name": "totalTweets",
      "outputs": [
        {
          "internalType": "uint256",
          "name": "",
          "type": "uint256"
        }
      ],
      "stateMutability": "view",
      "type": "function",
      "constant": true
    },
    {
      "inputs": [
        {
          "internalType": "uint256",
          "name": "",
          "type": "uint256"
        }
      ],
      "name": "tweets",
      "outputs": [
        {
          "internalType": "string",
          "name": "text",
          "type": "string"
        },
        {
          "internalType": "string",
          "name": "author",
          "type": "string"
        },
        {
          "internalType": "string",
          "name": "date",
          "type": "string"
        }
      ],
      "stateMutability": "view",
      "type": "function",
      "constant": true
    },
    {
      "inputs": [
        {
          "internalType": "string",
          "name": "text",
          "type": "string"
        },
        {
          "internalType": "string",
          "name": "author",
          "type": "string"
        },
        {
          "internalType": "string",
          "name": "date",
          "type": "string"
        }
      ],
      "name": "_createTweet",
      "outputs": [],
      "stateMutability": "nonpayable",
      "type": "function"
    },
    {
      "inputs": [
        {
          "internalType": "string",
          "name": "author",
          "type": "string"
        },
        {
          "internalType": "string",
          "name": "date",
          "type": "string"
        }
      ],
      "name": "_deleteTweet",
      "outputs": [],
      "stateMutability": "nonpayable",
      "type": "function"
    },
    {
      "inputs": [
        {
          "internalType": "string",
          "name": "newText",
          "type": "string"
        },
        {
          "internalType": "string",
          "name": "author",
          "type": "string"
        },
        {
          "internalType": "string",
          "name": "date",
          "type": "string"
        }
      ],
      "name": "_updateTweet",
      "outputs": [],
      "stateMutability": "nonpayable",
      "type": "function"
    },
    {
      "inputs": [
        {
          "internalType": "string",
          "name": "author",
          "type": "string"
        },
        {
          "internalType": "string",
          "name": "date",
          "type": "string"
        }
      ],
      "name": "_getTweet",
      "outputs": [
        {
          "internalType": "string",
          "name": "text",
          "type": "string"
        },
        {
          "internalType": "string",
          "name": "authorOut",
          "type": "string"
        },
        {
          "internalType": "string",
          "name": "dateOut",
          "type": "string"
        }
      ],
      "stateMutability": "view",
      "type": "function",
      "constant": true
    },
    {
      "inputs": [
        {
          "internalType": "string",
          "name": "author",
          "type": "string"
        },
        {
          "internalType": "string",
          "name": "date",
          "type": "string"
        }
      ],
      "name": "_getTweetIndex",
      "outputs": [
        {
          "internalType": "uint256",
          "name": "index",
          "type": "uint256"
        }
      ],
      "stateMutability": "view",
      "type": "function",
      "constant": true
    }
  ],
  "bytecode": "0x608060405234801561001057600080fd5b5060006001819055506113e3806100286000396000f3fe608060405234801561001057600080fd5b506004361061007d5760003560e01c8063448027021161005b57806344802702146100ec57806347baf6fe1461010a57806375f7bb6014610126578063e8d857b0146101565761007d565b806308eeff3a146100825780631ff93dfa1461009e57806328f9eac5146100ba575b600080fd5b61009c60048036038101906100979190610ea3565b610188565b005b6100b860048036038101906100b39190610ea3565b610237565b005b6100d460048036038101906100cf9190610e37565b610341565b6040516100e39392919061106a565b60405180910390f35b6100f46105e7565b60405161010191906110d6565b60405180910390f35b610124600480360381019061011f9190610e37565b6105ed565b005b610140600480360381019061013b9190610e37565b6107e8565b60405161014d91906110d6565b60405180910390f35b610170600480360381019061016b9190610f3a565b610a1f565b60405161017f9392919061106a565b60405180910390f35b600061019483836107e8565b905083600082815481106101d1577f4e487b7100000000000000000000000000000000000000000000000000000000600052603260045260246000fd5b906000526020600020906003020160000190805190602001906101f5929190610c4a565b507f63d3866914c1f2676dbfdcf8d90bf64e0649f28f25ef8e1370111cc04f1bc6798484846040516102299392919061106a565b60405180910390a150505050565b600060405180606001604052808581526020018481526020018381525090806001815401808255809150506001900390600052602060002090600302016000909190919091506000820151816000019080519060200190610299929190610c4a565b5060208201518160010190805190602001906102b6929190610c4a565b5060408201518160020190805190602001906102d3929190610c4a565b505050600160008154809291906102e9906112af565b91905055507f8dc066b2c06a86591edd3b0ebf5609cdb3e9a78dc2d789f0d626937a4d92b683600160008054905061032191906111d3565b84848460405161033494939291906110f1565b60405180910390a1505050565b6060806060600061035286866107e8565b90506000818154811061038e577f4e487b7100000000000000000000000000000000000000000000000000000000600052603260045260246000fd5b9060005260206000209060030201600001600082815481106103d9577f4e487b7100000000000000000000000000000000000000000000000000000000600052603260045260246000fd5b906000526020600020906003020160010160008381548110610424577f4e487b7100000000000000000000000000000000000000000000000000000000600052603260045260246000fd5b90600052602060002090600302016002018280546104419061127d565b80601f016020809104026020016040519081016040528092919081815260200182805461046d9061127d565b80156104ba5780601f1061048f576101008083540402835291602001916104ba565b820191906000526020600020905b81548152906001019060200180831161049d57829003601f168201915b505050505092508180546104cd9061127d565b80601f01602080910402602001604051908101604052809291908181526020018280546104f99061127d565b80156105465780601f1061051b57610100808354040283529160200191610546565b820191906000526020600020905b81548152906001019060200180831161052957829003601f168201915b505050505091508080546105599061127d565b80601f01602080910402602001604051908101604052809291908181526020018280546105859061127d565b80156105d25780601f106105a7576101008083540402835291602001916105d2565b820191906000526020600020905b8154815290600101906020018083116105b557829003601f168201915b50505050509050935093509350509250925092565b60015481565b6000600154116105fc57600080fd5b600061060883836107e8565b905060006001805461061a91906111d3565b81548110610651577f4e487b7100000000000000000000000000000000000000000000000000000000600052603260045260246000fd5b906000526020600020906003020160008281548110610699577f4e487b7100000000000000000000000000000000000000000000000000000000600052603260045260246000fd5b906000526020600020906003020160008201816000019080546106bb9061127d565b6106c6929190610cd0565b5060018201816001019080546106db9061127d565b6106e6929190610cd0565b5060028201816002019080546106fb9061127d565b610706929190610cd0565b5090505060006001805461071a91906111d3565b81548110610751577f4e487b7100000000000000000000000000000000000000000000000000000000600052603260045260246000fd5b9060005260206000209060030201600080820160006107709190610d5d565b6001820160006107809190610d5d565b6002820160006107909190610d5d565b5050600160008154809291906107a590611253565b91905055507f6272a9bd39940f30a6d5e7475c5a4aa29e11c007ba9565d67503b3efcc11422f83836040516107db929190611033565b60405180910390a1505050565b600080600090505b6001548110156109dd576108d760008281548110610837577f4e487b7100000000000000000000000000000000000000000000000000000000600052603260045260246000fd5b906000526020600020906003020160010180546108539061127d565b80601f016020809104026020016040519081016040528092919081815260200182805461087f9061127d565b80156108cc5780601f106108a1576101008083540402835291602001916108cc565b820191906000526020600020905b8154815290600101906020018083116108af57829003601f168201915b505050505085610bf1565b80156109bc57506109bb6000828154811061091b577f4e487b7100000000000000000000000000000000000000000000000000000000600052603260045260246000fd5b906000526020600020906003020160020180546109379061127d565b80601f01602080910402602001604051908101604052809291908181526020018280546109639061127d565b80156109b05780601f10610985576101008083540402835291602001916109b0565b820191906000526020600020905b81548152906001019060200180831161099357829003601f168201915b505050505084610bf1565b5b156109ca5780915050610a19565b80806109d5906112af565b9150506107f0565b506040517f08c379a0000000000000000000000000000000000000000000000000000000008152600401610a10906110b6565b60405180910390fd5b92915050565b60008181548110610a2f57600080fd5b9060005260206000209060030201600091509050806000018054610a529061127d565b80601f0160208091040260200160405190810160405280929190818152602001828054610a7e9061127d565b8015610acb5780601f10610aa057610100808354040283529160200191610acb565b820191906000526020600020905b815481529060010190602001808311610aae57829003601f168201915b505050505090806001018054610ae09061127d565b80601f0160208091040260200160405190810160405280929190818152602001828054610b0c9061127d565b8015610b595780601f10610b2e57610100808354040283529160200191610b59565b820191906000526020600020905b815481529060010190602001808311610b3c57829003601f168201915b505050505090806002018054610b6e9061127d565b80601f0160208091040260200160405190810160405280929190818152602001828054610b9a9061127d565b8015610be75780601f10610bbc57610100808354040283529160200191610be7565b820191906000526020600020905b815481529060010190602001808311610bca57829003601f168201915b5050505050905083565b600081604051602001610c04919061101c565b6040516020818303038152906040528051906020012083604051602001610c2b919061101c565b6040516020818303038152906040528051906020012014905092915050565b828054610c569061127d565b90600052602060002090601f016020900481019282610c785760008555610cbf565b82601f10610c9157805160ff1916838001178555610cbf565b82800160010185558215610cbf579182015b82811115610cbe578251825591602001919060010190610ca3565b5b509050610ccc9190610d9d565b5090565b828054610cdc9061127d565b90600052602060002090601f016020900481019282610cfe5760008555610d4c565b82601f10610d0f5780548555610d4c565b82800160010185558215610d4c57600052602060002091601f016020900482015b82811115610d4b578254825591600101919060010190610d30565b5b509050610d599190610d9d565b5090565b508054610d699061127d565b6000825580601f10610d7b5750610d9a565b601f016020900490600052602060002090810190610d999190610d9d565b5b50565b5b80821115610db6576000816000905550600101610d9e565b5090565b6000610dcd610dc88461117c565b61114b565b905082815260208101848484011115610de557600080fd5b610df0848285611211565b509392505050565b600082601f830112610e0957600080fd5b8135610e19848260208601610dba565b91505092915050565b600081359050610e3181611396565b92915050565b60008060408385031215610e4a57600080fd5b600083013567ffffffffffffffff811115610e6457600080fd5b610e7085828601610df8565b925050602083013567ffffffffffffffff811115610e8d57600080fd5b610e9985828601610df8565b9150509250929050565b600080600060608486031215610eb857600080fd5b600084013567ffffffffffffffff811115610ed257600080fd5b610ede86828701610df8565b935050602084013567ffffffffffffffff811115610efb57600080fd5b610f0786828701610df8565b925050604084013567ffffffffffffffff811115610f2457600080fd5b610f3086828701610df8565b9150509250925092565b600060208284031215610f4c57600080fd5b6000610f5a84828501610e22565b91505092915050565b6000610f6e826111ac565b610f7881856111b7565b9350610f88818560208601611220565b610f9181611385565b840191505092915050565b6000610fa7826111ac565b610fb181856111c8565b9350610fc1818560208601611220565b80840191505092915050565b6000610fda600f836111b7565b91507f7477656574206e6f7420666f756e6400000000000000000000000000000000006000830152602082019050919050565b61101681611207565b82525050565b60006110288284610f9c565b915081905092915050565b6000604082019050818103600083015261104d8185610f63565b905081810360208301526110618184610f63565b90509392505050565b600060608201905081810360008301526110848186610f63565b905081810360208301526110988185610f63565b905081810360408301526110ac8184610f63565b9050949350505050565b600060208201905081810360008301526110cf81610fcd565b9050919050565b60006020820190506110eb600083018461100d565b92915050565b6000608082019050611106600083018761100d565b81810360208301526111188186610f63565b9050818103604083015261112c8185610f63565b905081810360608301526111408184610f63565b905095945050505050565b6000604051905081810181811067ffffffffffffffff8211171561117257611171611356565b5b8060405250919050565b600067ffffffffffffffff82111561119757611196611356565b5b601f19601f8301169050602081019050919050565b600081519050919050565b600082825260208201905092915050565b600081905092915050565b60006111de82611207565b91506111e983611207565b9250828210156111fc576111fb6112f8565b5b828203905092915050565b6000819050919050565b82818337600083830152505050565b60005b8381101561123e578082015181840152602081019050611223565b8381111561124d576000848401525b50505050565b600061125e82611207565b91506000821415611272576112716112f8565b5b600182039050919050565b6000600282049050600182168061129557607f821691505b602082108114156112a9576112a8611327565b5b50919050565b60006112ba82611207565b91507fffffffffffffffffffffffffffffffffffffffffffffffffffffffffffffffff8214156112ed576112ec6112f8565b5b600182019050919050565b7f4e487b7100000000000000000000000000000000000000000000000000000000600052601160045260246000fd5b7f4e487b7100000000000000000000000000000000000000000000000000000000600052602260045260246000fd5b7f4e487b7100000000000000000000000000000000000000000000000000000000600052604160045260246000fd5b6000601f19601f8301169050919050565b61139f81611207565b81146113aa57600080fd5b5056fea26469706673582212207a95fdf526c9918b53cb16a99a2fdf5d20524c49fa4b24dde3aa907e2f6d33d364736f6c63430008000033",
  "immutableReferences": {},
  "source": "pragma solidity >=0.4.22 <0.9.0;\n\n/**\n* @title Tweet Factory\n* @author Rami Moubayed & Juan Riveros\n* @dev With natspecs norm\n */\n\n contract TweetFactory {\n\n    event NewTweet(uint256 tweetId, string text, string author, string date);\n    event DeleteTweet(string author, string date);\n    event UpdateTweet(string newText, string author, string date);\n\n    struct Tweet {\n        string text;\n        string author;\n        string date;\n    }\n\n    Tweet[] public tweets;\n    uint256 public totalTweets;\n\n    constructor() {\n        totalTweets = 0;\n    }\n\n    /**\n    * @dev A function to create a new tweet\n    * @param text text of the tweet\n    * @param author the author of the new tweet\n    * @param date the date of the new tweet\n    */\n    function _createTweet(\n        string memory text, \n        string memory author,\n        string memory date) public {\n\n        tweets.push(Tweet(text, author, date));\n        totalTweets++;\n        emit NewTweet(tweets.length - 1 , text, author, date);\n    }\n\n    /**\n    * @dev A function to delete a tweet\n    * @param author the author of the new tweet\n    * @param date the date of the new tweet\n    */\n    function _deleteTweet(\n        string memory author,\n        string memory date) public {\n            require(totalTweets > 0);\n            uint256 tweetIndex = _getTweetIndex(author, date);\n            tweets[tweetIndex] = tweets[totalTweets - 1];\n            delete tweets[totalTweets - 1];\n            totalTweets--;\n            emit DeleteTweet(author, date);\n    }\n\n    /**\n    * @dev A function to create a new tweet\n    * @param newText text of the tweet\n    * @param author the author of the new tweet\n    * @param date the date of the new tweet\n    */\n    function _updateTweet(\n        string memory newText, \n        string memory author,\n        string memory date) public {\n        \n        uint256 tweetIndex = _getTweetIndex(author, date);\n\n        tweets[tweetIndex].text = newText;\n        emit UpdateTweet(newText, author, date);\n    }\n\n    function _getTweet(\n        string memory author,\n        string memory date) public view returns(string memory text, string memory authorOut, string memory dateOut){\n        uint256 index = _getTweetIndex(author, date);\n        return (tweets[index].text, tweets[index].author, tweets[index].date);\n   }\n\n\n    /**\n    * @dev A function to compare two strings\n    * @param a first string\n    * @param b second string\n    */\n    function compareStrings (string memory a, string memory b)  internal pure returns (bool){\n       return keccak256(abi.encodePacked((a))) == keccak256(abi.encodePacked((b)));\n   }\n\n\n    /**\n    * @dev A function to get a tweet\n    * @param author the author of the new tweet\n    * @param date the date of the new tweet\n    */\n    function _getTweetIndex(\n        string memory author,\n        string memory date) public view returns(uint256 index){\n            for (uint i = 0; i < totalTweets; i++) {\n                if(compareStrings(tweets[i].author, author) && compareStrings(tweets[i].date, date)){\n                    return i;\n                }\n            }\n            revert(\"tweet not found\");\n    }\n\n     \n\n }",
  "sourcePath": "/Users/ramimoubayed/Desktop/CurrentCourses/BitCoinCourse/blockchain-project/project-smartcontracts/contracts/TweetFactory.sol",
  "compiler": {
    "name": "solc",
    "version": "0.8.0+commit.c7dfd78e.Emscripten.clang"
  },
  "schemaVersion": "3.3.4",
  "updatedAt": "2021-02-19T19:34:04.693Z",
  "networkType": "ethereum",
  "devdoc": {
    "author": "Rami Moubayed & Juan Riveros",
    "details": "With natspecs norm",
    "kind": "dev",
    "methods": {
      "_createTweet(string,string,string)": {
        "details": "A function to create a new tweet",
        "params": {
          "author": "the author of the new tweet",
          "date": "the date of the new tweet",
          "text": "text of the tweet"
        }
      },
      "_deleteTweet(string,string)": {
        "details": "A function to delete a tweet",
        "params": {
          "author": "the author of the new tweet",
          "date": "the date of the new tweet"
        }
      },
      "_getTweetIndex(string,string)": {
        "details": "A function to get a tweet",
        "params": {
          "author": "the author of the new tweet",
          "date": "the date of the new tweet"
        }
      },
      "_updateTweet(string,string,string)": {
        "details": "A function to create a new tweet",
        "params": {
          "author": "the author of the new tweet",
          "date": "the date of the new tweet",
          "newText": "text of the tweet"
        }
      }
    },
    "title": "Tweet Factory",
    "version": 1
  },
  "userdoc": {
    "kind": "user",
    "methods": {},
    "version": 1
  }
}